{
  "abi": [
    {
      "inputs": [],
      "stateMutability": "nonpayable",
      "type": "constructor"
    },
    {
      "anonymous": false,
      "inputs": [
        {
          "indexed": true,
          "internalType": "address",
          "name": "_service",
          "type": "address"
        }
      ],
      "name": "DidAddCas",
      "type": "event"
    },
    {
      "anonymous": false,
      "inputs": [
        {
          "indexed": true,
          "internalType": "address",
          "name": "_service",
          "type": "address"
        },
        {
          "indexed": false,
          "internalType": "bytes",
          "name": "_root",
          "type": "bytes"
        }
      ],
      "name": "DidAnchor",
      "type": "event"
    },
    {
      "anonymous": false,
      "inputs": [
        {
          "indexed": true,
          "internalType": "address",
          "name": "_service",
          "type": "address"
        }
      ],
      "name": "DidRemoveCas",
      "type": "event"
    },
    {
      "anonymous": false,
      "inputs": [
        {
          "indexed": true,
          "internalType": "address",
          "name": "previousOwner",
          "type": "address"
        },
        {
          "indexed": true,
          "internalType": "address",
          "name": "newOwner",
          "type": "address"
        }
      ],
      "name": "OwnershipTransferred",
      "type": "event"
    },
    {
      "inputs": [
        {
          "internalType": "address",
          "name": "_service",
          "type": "address"
        }
      ],
      "name": "addCas",
      "outputs": [],
      "stateMutability": "nonpayable",
      "type": "function"
    },
    {
      "inputs": [
        {
          "internalType": "bytes",
          "name": "_root",
          "type": "bytes"
        }
      ],
      "name": "anchor",
      "outputs": [],
      "stateMutability": "nonpayable",
      "type": "function"
    },
    {
      "inputs": [
        {
          "internalType": "address",
          "name": "_service",
          "type": "address"
        }
      ],
      "name": "isServiceAllowed",
      "outputs": [
        {
          "internalType": "bool",
          "name": "",
          "type": "bool"
        }
      ],
      "stateMutability": "view",
      "type": "function"
    },
    {
      "inputs": [],
      "name": "owner",
      "outputs": [
        {
          "internalType": "address",
          "name": "",
          "type": "address"
        }
      ],
      "stateMutability": "view",
      "type": "function"
    },
    {
      "inputs": [
        {
          "internalType": "address",
          "name": "_service",
          "type": "address"
        }
      ],
      "name": "removeCas",
      "outputs": [],
      "stateMutability": "nonpayable",
      "type": "function"
    },
    {
      "inputs": [],
      "name": "renounceOwnership",
      "outputs": [],
      "stateMutability": "nonpayable",
      "type": "function"
    },
    {
      "inputs": [
        {
          "internalType": "address",
          "name": "newOwner",
          "type": "address"
        }
      ],
      "name": "transferOwnership",
      "outputs": [],
      "stateMutability": "nonpayable",
      "type": "function"
    }
  ],
  "bytecode": {
    "object": "0x608060405234801561001057600080fd5b5061001a3361001f565b61006f565b600080546001600160a01b038381166001600160a01b0319831681178455604051919092169283917f8be0079c531659141344cd1fd0a4f28419497f9722a3daafe3b4186f6b6457e09190a35050565b61056e8061007e6000396000f3fe608060405234801561001057600080fd5b506004361061007d5760003560e01c80637d3b0ca21161005b5780637d3b0ca2146100b25780638da5cb5b146100c5578063f28453e6146100e5578063f2fde38b1461012157600080fd5b806339cd70d214610082578063715018a6146100975780637c22986e1461009f575b600080fd5b610095610090366004610467565b610134565b005b61009561018b565b6100956100ad366004610467565b61019f565b6100956100c0366004610497565b61027f565b6000546040516001600160a01b0390911681526020015b60405180910390f35b6101116100f3366004610467565b6001600160a01b031660009081526001602052604090205460ff1690565b60405190151581526020016100dc565b61009561012f366004610467565b610344565b61013c6103bd565b6001600160a01b0381166000818152600160208190526040808320805460ff1916909217909155517f9d1718ad4362863c494187b5bc7779357412ed66223197e206cbd518b50924969190a250565b6101936103bd565b61019d6000610417565b565b6000546001600160a01b03163314806101da57503360009081526001602052604090205460ff1680156101da5750336001600160a01b038216145b6102365760405162461bcd60e51b815260206004820152602260248201527f43616c6c6572206973206e6f7420616c6c6f776564206f7220746865206f776e60448201526132b960f11b60648201526084015b60405180910390fd5b6001600160a01b038116600081815260016020526040808220805460ff19169055517f92a2ba05b24e29c93740ad08a206699c531780ff746cfb8882d1d46dad70714b9190a250565b3360009081526001602052604090205460ff16806102a757506000546001600160a01b031633145b6102fd5760405162461bcd60e51b815260206004820152602160248201527f416c6c6f77204c6973743a2063616c6c6572206973206e6f7420616c6c6f77656044820152601960fa1b606482015260840161022d565b336001600160a01b03167f8e3f3d86e13cacbaa815f052abb00462cf86959c7c301909f664a88179d48ce48383604051610338929190610509565b60405180910390a25050565b61034c6103bd565b6001600160a01b0381166103b15760405162461bcd60e51b815260206004820152602660248201527f4f776e61626c653a206e6577206f776e657220697320746865207a65726f206160448201526564647265737360d01b606482015260840161022d565b6103ba81610417565b50565b6000546001600160a01b0316331461019d5760405162461bcd60e51b815260206004820181905260248201527f4f776e61626c653a2063616c6c6572206973206e6f7420746865206f776e6572604482015260640161022d565b600080546001600160a01b038381166001600160a01b0319831681178455604051919092169283917f8be0079c531659141344cd1fd0a4f28419497f9722a3daafe3b4186f6b6457e09190a35050565b60006020828403121561047957600080fd5b81356001600160a01b038116811461049057600080fd5b9392505050565b600080602083850312156104aa57600080fd5b823567ffffffffffffffff808211156104c257600080fd5b818501915085601f8301126104d657600080fd5b8135818111156104e557600080fd5b8660208285010111156104f757600080fd5b60209290920196919550909350505050565b60208152816020820152818360408301376000818301604090810191909152601f909201601f1916010191905056fea2646970667358221220f18bed02b706341432cf1c668d7500ed588c04cf186f942a6c2f68bfdc8b874664736f6c634300080e0033",
    "linkReferences": {}
  },
  "methodIdentifiers": {
    "addCas(address)": "39cd70d2",
    "anchor(bytes)": "7d3b0ca2",
    "isServiceAllowed(address)": "f28453e6",
    "owner()": "8da5cb5b",
    "removeCas(address)": "7c22986e",
    "renounceOwnership()": "715018a6",
    "transferOwnership(address)": "f2fde38b"
  },
  "id": 8
}